:020000040800F2
:1000000000000820B19D0008916A0008956A000868
:10001000996A00089D6A0008A16A000800000000B3
:10002000000000000000000000000000A56A0008B9
:10003000A96A000800000000AD6A0008B16A000863
:10004000019E0008019E0008019E0008019E000814
:10005000019E0008019E0008019E0008019E000804
:10006000019E0008019E0008019E0008019E0008F4
:10007000019E0008019E0008019E0008019E0008E4
:10008000019E0008019E0008019E0008019E0008D4
:10009000019E0008019E0008019E0008019E0008C4
:1000A000019E0008019E0008019E0008019E0008B4
:1000B000B56A0008C16A0008019E0008019E000898
:1000C000019E0008019E0008019E0008019E000894
:1000D000019E0008019E0008019E0008019E000884
:1000E000019E0008019E0008019E0008019E000874
:1000F000019E0008019E0008019E0008019E000864
:10010000019E0008019E0008019E0008019E000853
:10011000CD6A0008019E0008019E0008019E0008AB
:10012000019E0008019E0008019E0008019E000833
:10013000019E0008019E0008019E0008019E000823
:10014000019E0008019E0008019E0008D96A00086F
:10015000019E0008019E0008019E0008019E000803
:10016000019E0008019E0008019E0008019E0008F3
:10017000019E0008019E0008019E0008000000008A
:10018000019E0008019E0008019E0008019E0008D3
:10019000019E0008019E0008019E0008019E0008C3
:1001A0000000000000000000019E0008019E000801
:1001B000019E0008019E0008019E0008019E0008A3
:1001C000019E0008019E000800000000019E00083A
:1001D000019E0008019E0008019E0008019E000883
:1001E000019E0008019E0008019E0008019E000873
:0801F00000000000019E000860
:1002000010B5054C237833B9044B13B10448AFF350
:1002100000800123237010BD900300200000000027
:10022000F0D4000808B5034B1BB103490348AFF3F2
:10023000008008BD0000000094030020F0D40008F6
:1002400010F8012B11F8013B012A28BF9A42F7D080
:10025000D01A7047034613F8012B002AFBD1181A55
:10026000013870470000000000000000000000009E
:1002700001F0FF01102A2BDB10F0070F08D010F857
:10028000013B013A8B422DD010F0070F42B3F6D15B
:10029000F0B441EA012141EA014122F007047FF074
:1002A00000070023F0E80256083C85EA010586EACB
:1002B000010685FA47F5A3FA87F586FA47F6A5FA07
:1002C00087F68EB9EED1F0BC01F0FF0102F0070213
:1002D00032B110F8013B013A83EA010313B1F8D1BE
:1002E0000020704701387047002D06BF354603389F
:1002F000073815F0010F07D1013015F4807F02BFD8
:10030000013015F4C03F0130F0BC0138704700BF28
:1003100053B94AB9002908BF00281CBF4FF0FF316C
:100320004FF0FF3000F07AB9ADF1080C6DE904CE62
:1003300000F006F8DDF804E0DDE9022304B07047C0
:100340002DE9F0478C460D460446089E002B51D1FE
:100350008A4217466DD9B2FA82FEBEF1000F0BD069
:10036000CEF1200C01FA0EF520FA0CFC02FA0EF781
:100370004CEA050C00FA0EF44FEA174A250CBCFBB8
:10038000FAF81FFA87F90AFB18CC45EA0C4508FB76
:1003900009F3AB420AD9ED1908F1FF3280F023814D
:1003A000AB4240F22081A8F102083D44ED1AA4B20C
:1003B000B5FBFAF00AFB105544EA054400FB09F9C5
:1003C000A14509D9E41900F1FF3380F00A81A14564
:1003D00040F2078102383C44A4EB090440EA08409B
:1003E0000021002E61D024FA0EF4002334607360E3
:1003F000BDE8F0878B4207D9002E54D0002186E853
:1004000021000846BDE8F087B3FA83F1002940F0E7
:100410008E80AB4202D3824200F2FA80841A65EBEE
:1004200003050120AC46002E3FD086E81010BDE841
:10043000F08712B90127B7FBF2F7B7FA87FEBEF1D2
:10044000000F34D1EB1B3A0C1FFA87FC0121B3FBE0
:10045000F2F8250C02FB183345EA03450CFB08F3C0
:10046000AB4207D9ED1908F1FF3002D2AB4200F2DE
:10047000D1808046ED1AA3B2B5FBF2F002FB105515
:1004800043EA05440CFB00FCA44507D9E41900F13C
:10049000FF3302D2A44500F2B8801846A4EB0C0446
:1004A00040EA08409DE731463046BDE8F087CEF18E
:1004B000200405FA0EF307FA0EF720FA04F83A0CB6
:1004C00025FA04F448EA0308B4FBF2F14FEA1845B0
:1004D00002FB11441FFA87FC45EA044501FB0CF3BB
:1004E000AB4200FA0EF409D9ED1901F1FF3080F0AA
:1004F0008A80AB4240F2878002393D44EB1A1FFAF2
:1005000088F5B3FBF2F002FB103345EA034500FB2C
:100510000CF3AB4207D9ED1900F1FF386FD2AB42B3
:100520006DD902383D44EB1A40EA01418FE7C1F131
:10053000200722FA07F88B4005FA01F448EA030382
:1005400020FA07FE4FEA134CFD404EEA040EB5FBBD
:10055000FCF94FEA1E440CFB19551FFA83F844EAD4
:10056000054509FB08F4AC4202FA01F200FA01FA6F
:1005700008D9ED1809F1FF3043D2AC4241D9A9F1B5
:1005800002091D442D1B1FFA8EFEB5FBFCF00CFB6F
:1005900010554EEA054400FB08F8A04507D9E418B9
:1005A00000F1FF3529D2A04527D902381C4440EA82
:1005B0000940A4EB0804A0FB02894C45C6464D4601
:1005C00015D312D056B1BAEB0E0364EB050404FA4E
:1005D00007F7CB401F43CC40376074600021BDE873
:1005E000F0871846F8E69046E0E6C245EAD2B8EB56
:1005F000020E69EB03050138E4E72846D7E74046D9
:1006000091E78146BEE7014678E702383C4445E77A
:10061000084608E7A8F102083D442BE7704700BFF1
:100620000E4A4FF47A730E491278B3FBF2F310B509
:1006300004460868B0FBF3F000F0B6F858B90F2C88
:1006400009D8002221464FF0FF3000F051F8054B49
:1006500000201C6010BD012010BD00BF0000002064
:10066000400100200400002008B5032000F02CF811
:100670000020FFF7D5FF06F033F9002008BD00BFCA
:10068000034A044B11681B780B441360704700BF8A
:100690007814002000000020014B1868704700BF4C
:1006A0007814002038B50446FFF7F6FF0546631CB2
:1006B00002D0044B1B781C44FFF7EEFF401B844222
:1006C000FAD838BD0000002007490002074BCA686D
:1006D00000F4E06010B44FF6FF0422405DF8044BD4
:1006E00013431843C860704700ED00E00000FA05AE
:1006F000194B70B4DC68C4F30224C4F10706231D4F
:10070000042E28BF0426062B19D9033C0125A54039
:10071000013D2A400123002803FA06F303F1FF33C9
:1007200001EA030101FA04F141EA02010ADB0901CD
:100730000A4BC9B2034483F8001370BC704700220F
:100740001446E7E700F00F000901054BC9B2034466
:10075000197670BC704700BF00ED00E000E100E0DA
:10076000FCEC00E0002807DB00F01F01012340093A
:10077000024A8B4042F82030704700BF00E100E0A1
:1007800000280DDB4309012200F01F00054920333A
:1007900002FA00F041F82300BFF34F8FBFF36F8FD1
:1007A000704700BF00E100E00138B0F1807F0DD25A
:1007B000074B0022072130B4F025064C5860104644
:1007C00084F823509A60196030BC7047012070474C
:1007D00010E000E000ED00E090F835200346022A2A
:1007E00003D0802201205A6570470268052100204D
:1007F00083F83510136823F001031360704700BFBE
:10080000184BDB689B0704D5174A936943F0200314
:100810009361144BDB68D80604D5134A936943F0FF
:10082000100393610F4BDB68990604D50E4A936958
:1008300043F0080393610B4BDB685A0604D50A4A60
:10084000936943F004039361064BDB681B0604D5F0
:10085000054A936943F002039361024BF222DA6086
:10086000704700BF003C02407C140020064B1A6910
:10087000002A01DB002070470449054A59605A608C
:100880001869C00F704700BF003C02402301674554
:10089000AB89EFCD034A0020136943F00043136195
:1008A000704700BF003C0240134B002270B5054664
:1008B0009A61124CFFF7F0FE064601E06A1C0DD16A
:1008C000E368DB03FAD4E06810F0F20010D1E368CB
:1008D00013F001030AD00123E36070BD25B1FFF7D7
:1008E000DBFE801B8542EBD2032070BD184670BD35
:1008F000FFF786FF012070BD7C140020003C024001
:100900002DE9F041364C257D012D02D10220BDE8B4
:10091000F0811F46012305464CF2503090460E46AA
:100920002375FFF7C1FF00BB032D15D8DFE805F0E5
:10093000460234212B4B1FFA88F2196921F44071C9
:100940001961196941F480711961196941F0010156
:1009500019613280BFF34F8F4CF25030FFF7A4FF84
:10096000204A136923F00103136100232375BDE8B6
:10097000F0811C4B1A6922F440721A611A6942F420
:1009800040721A611A6942F001021A61C6F80080C9
:100990007760BFF34F8FDFE7124B1A6922F4407282
:1009A0001A611A6942F400721A611A6942F001026E
:1009B0001A61C6F80080BFF34F8FCDE7094B5FFA8D
:1009C00088F2196921F4407119611969196119696D
:1009D00041F0010119613270BFF34F8FBCE700BFD6
:1009E0007C140020003C02400F4B03291A6922F4BA
:1009F00040721A6111D01A6902290CBF42F40042F8
:100A000042F004021A61084A136943F4803343EA4E
:100A100000201061BFF34F8F7047196948F204023C
:100A20000A431A61EFE700BF003C024039B10129D7
:100A300021D002290CBF4FF400714FF440710F4BCD
:100A40000B281A6988BF043022F440721A611A69AF
:100A5000114319611A6922F0F8021A611A6942F009
:100A6000020242EAC00018611A6942F480321A6137
:100A7000BFF34F8F70474FF48071E0E7003C0240B6
:100A80002DE9F843264E337D012B03D1022738464A
:100A9000BDE8F883012304464CF250308846337594
:100AA000FFF702FF074638BB4FF0FF33C8F80030AE
:100AB0002368012B25D0A568E3682B449D421BD2F7
:100AC000DFF8609005E0E3680135A2681344AB42AB
:100AD00012D9217C2846FFF7A9FF4CF25030FFF7CE
:100AE000E3FED9F8103023F0FA03C9F810300028DB
:100AF000E9D00746C8F80050002338463375BDE8F2
:100B0000F8836168207CFFF76FFF4CF25030FFF7ED
:100B1000CBFE044A044B074611690B401361EBE717
:100B20007C140020003C0240FB7FFFFF2DE9F04FCA
:100B3000D1F800C083B00025DFF82C82DFF82CE26A
:100B400003E00135102D00F0BF800123AB4003EA24
:100B50000C029342F5D14E6826F01009B9F1020F4C
:100B600040F0B5804FEAD50905F0070A4FF00F0BAA
:100B70000C6900EB89094FEA8A0AD9F820700BFA50
:100B80000AFB04FA0AF44FEA450A27EA0B074FF07A
:100B9000030B3C430BFA0AFB06F00307C9F820409D
:100BA0006FEA0B04D0F8009007FA0AF709EA040983
:100BB00047EA090707608768C6F3001907EA040BCC
:100BC000CF6809FA05F907FA0AF747EA0B078760C1
:100BD000476827EA030349EA03034360C7688B6851
:100BE0003C4003FA0AF32343C360F300A9D5D8F8C5
:100BF000444025F0030705F003034FF00F0944F4C8
:100C0000804407F180479B00C8F8444007F59C37B3
:100C1000D8F8444009FA03F904F480440194019C93
:100C2000BC6824EA090A4B4CA04269D004F58064F0
:100C3000A04267D0484CA04269D0484CA0426BD03B
:100C4000474CA0426DD0474CA0426FD0DFF82091B6
:100C5000484570D0DFF81C91484571D0DFF81891F5
:100C6000484572D0DFF8149148450CBF4FF0090990
:100C70004FF00A0909FA03F343EA0A03D4430135A2
:100C8000BB60F703DEF8003054BF23401343B703C3
:100C9000CEF80030DEF8043054BF23401343F7028F
:100CA000CEF80430DEF8083054BF23401343B602B8
:100CB000CEF80830DEF80C3054BF23401343102D1B
:100CC000CEF80C307FF441AF03B0BDE8F08F4FEAAF
:100CD000450A0324D0F800B009F1FF3906EA0407F9
:100CE00004FA0AF4B9F1010F6FEA040407FA0AF7EB
:100CF0000BEA040B47EA0B0707603FF66FAF5AE7B2
:100D00000023B9E74FF0010909FA03F3B4E74FF004
:100D1000020909FA03F3AFE74FF0030909FA03F3F5
:100D2000AAE74FF0040909FA03F3A5E74FF0050914
:100D300009FA03F3A0E74FF0060909FA03F39BE76A
:100D40004FF0070909FA03F396E74FF0080909FA8B
:100D500003F391E70000024000080240000C02404B
:100D6000001002400014024000380240003C0140E4
:100D700000180240001C02400020024000240240F3
:100D80002DE9F04F0023DFF870A1DFF87091DFF854
:100D90007081DFF870B102E00133102B5ED00125C5
:100DA00005FA03F202EA0106B242F5D123F0030785
:100DB00003F003044FF00F0E484557444FEA8404F4
:100DC000D7F808C00EFA04FE0CEA0E0C62D05845A3
:100DD00018D0414DA8425FD0404DA84260D0404D50
:100DE000A84261D03F4DA84262D03F4DA84263D097
:100DF0003E4DA84264D03E4DA84265D03D4DA8422C
:100E000066D00A2505FA04F4A44529D003255C0020
:100E1000D0F800E00F2705FA04F423FA05F603F0F2
:100E200007050133E44300EB8606AD00102B0EEA04
:100E3000040E07FA05F7C0F800E0356A25EA070551
:100E40003562856805EA04058560456825EA020281
:100E50004260C26804EA0204C460A0D1BDE8F08F19
:100E6000BC68F64324EA0E04BC60D8F80040344065
:100E7000C8F80040D8F804403440C8F80440D8F816
:100E800008403440C8F80840D8F80C402640C8F85C
:100E90000C60BBE70024B7E7022505FA04F4B3E7CA
:100EA000032505FA04F4AFE7042505FA04F4ABE7DB
:100EB000052505FA04F4A7E7062505FA04F4A3E7D7
:100EC000072505FA04F49FE7082505FA04F49BE7D3
:100ED000092505FA04F497E700080240000C0240D7
:100EE000001002400014024000180240001C0240A2
:100EF000002002400024024000380140000002406F
:100F0000003C0140000402400369194214BF012063
:100F10000020704702B9090481617047F0B58BB0B9
:100F2000002800F0848090F8BD33044603F0FF02EF
:100F3000002B77D00323254620686F4684F8BD3305
:100F4000261D02F0F9FE55F810CBAE46BEE80F00A4
:100F50000FC7BEE80F000FC79EE8030087E8030035
:100F6000604696E80E0002F021FE074630B10125EA
:100F70000223284684F8BD330BB0F0BD014620683B
:100F800002F0E2FE606860B339464FF0010E3A4667
:100F9000C1EBC1034F1C04EB830383F83C10A3F89F
:100FA0004210F9B283F83DE0814283F83F205A6451
:100FB0009A641A65ECD300221146C2EBC203571C97
:100FC00004EB830383F8FC21FAB283F8FD1182421B
:100FD00083F8FF11C3F80412C3F80812C3F8101203
:100FE000EBD30FCD6F46D4F800E00FC70FCD0FC77E
:100FF00095E8030087E80300704696E80E0002F0CB
:10100000BFFE05460028B2D10122636A84F8380089
:10101000934284F8BD230ED0206803F05BFA284683
:101020000BB0F0BD80F8BC2305F070FE82E701250F
:1010300028460BB0F0BD204600F0FEFCECE700BFF8
:1010400090F8BC33012B01D10220704710B5012369
:101050000446006884F8BC3303F030FA206802F0DC
:1010600063FE002084F8BC0310BD00BF2DE9F04FE3
:10107000076889B00446384603F06AFA10B109B02F
:10108000BDE8F08F0646206803F030FA0028F6D05D
:10109000206803F02BFA10F0020F206803D0436998
:1010A00003F00203436103F021FA020300F1FD8023
:1010B0004FF0000B206803F019FA450300F194800B
:1010C00023680393039803F011FA0028C0F2B98152
:1010D000206803F00BFA000564D4206803F006FAD8
:1010E000020113D5226894F8F413536903F00063E6
:1010F0005361002961D1536D01212046C3F383035D
:1011000084F8F413C4F8F83305F066FF206803F0A0
:10111000EDF9C30400F12481206803F0E7F910F42D
:10112000005F206840F0028103F0E0F910F0100F3A
:10113000206811D0836923F0100383613D6AC5F3F1
:10114000434305F00F06022B00F04D82062B38D0EA
:10115000836943F01003836103F0C8F9070700F1C6
:101160005C81206803F0C2F9C60200F14B8120685F
:1011700003F0BCF9850200F15981206803F0B6F94B
:10118000400000F13681206803F0B0F941077FF597
:1011900076AF23685D686A0700F10F825A681543CD
:1011A0005D606CE7D7F80838D90700F10B8220683A
:1011B000436903F40063436190E7204605F022FE93
:1011C000A4E7C6EBC606082204F57171384603F0A1
:1011D000F7F8C5F30A1304EB86022068D2F814125C
:1011E0000B44C2F81432B3E7206803F08BF9814650
:1011F000002800F09F822368A04607F5106A4FF090
:10120000000B03930497059609E05FEA59090BF177
:10121000010B08F11C080AF1200A00F0268119F0E0
:10122000010FF2D05FFA8BF60398314603F07CF998
:101230000546E8071FD50127049B0BF00F01206925
:10124000D3F8342807FA01F1B84222EA0102C3F8C0
:101250003428CAF8087000F0E3813146204605F0D2
:10126000ADFD2369012B06D1BBF1000F03D1236D26
:10127000002B00F06182290702D50823CAF8083044
:10128000EA0602D51023CAF808306B0602D54023BF
:10129000CAF80830AF0702D50223CAF808302D0675
:1012A00000F1098123680393AFE7206803F022F976
:1012B000054600283FF4FCAE07F53068A1464FF024
:1012C000000B2068039608E06D080BF1010B08F194
:1012D000200809F11C0900F0CB80EB07F4D55FFA78
:1012E0008BF6314603F016F910F0010F824640F0FC
:1012F000C1801AF0080F40F0428120681AF0100FE8
:1013000002D01023C8F808301AF0200F06D0216947
:10131000012900F0C6812023C8F808301AF4005FC4
:10132000D2D04FF40053C8F80830CDE703F014F9D9
:10133000206802F019FE002840F05281E060256824
:1013400000F076FE227B0146284602F06DFC204626
:1013500005F042FD2068436903F400534361E3E66E
:1013600007F500656B682068102123F001036B60AE
:1013700002F0E8FDD4F804E0BEF1000F15D007F547
:1013800010634FF67F31996001361A682033764535
:1013900022F4001243F8202CC3F8E811D3F8E0211E
:1013A00022F40012C3F8E021EDD1EB69226B43F087
:1013B0000113EB61002A00F00981D5F8843043F075
:1013C0000B03C5F884306B6C43F00B036B64D7F8E8
:1013D000003804F57172217C23F4FE632068C7F89D
:1013E000003803F0D5F82068436903F48053436163
:1013F00093E6204605F02AFD2068436903F0804308
:101400004361C1E620465FFA8BF105F01BFD2068C1
:10141000436903F480134361AAE6204605F0D8FC33
:101420002068436903F0080343619BE620465FFAA6
:101430008BF105F003FD2068436903F40013436159
:101440009CE694F8F413D7F80428012922F001024D
:10145000C7F8042800F0F580204605F0EBFC206872
:10146000436903F00043436133E6049F059E29E688
:10147000039E20E620680121D4F810E000F53063D7
:10148000C8F808108E45026C03EB4B13D3F808C064
:1014900000F0ED80AE498A4208D11CF4004F40F0C4
:1014A00039811CF0200F01D020219960314620465F
:1014B00005F07AFC1DE7D8F85430D8F8502027689A
:1014C000934203973FF6A1AED51AD8F8440007F52A
:1014D00010618542AE4601EB4B1128BF864606914E
:1014E00089690EF1030E89B2B1EB9E0F35D3A2B319
:1014F000934232D2CDF81CB0D8F84810DDF818B0BD
:101500000BE0D8F850209A42A2EB030540F2D180BC
:10151000002A00F0CE80D8F844008542324628BF29
:101520000546207CABB20090384602F031FFDBF874
:101530001820D8F84810E81CD8F8543092B2294442
:101540002B44B2EB900FC8F84810C8F85430D8D2EA
:10155000DDF81CB0D8F8502027689342C0F0A7806F
:10156000039B0BF00F020120039703F50061D3F8F2
:10157000343800FA02F223EA02034B6345E622689C
:10158000216902F53063126C012903EB4B13986853
:1015900066D06F498A424BD02046049205F0FEFB8C
:1015A0006C4B049A9A4203D92169012900F0BC804E
:1015B00008232068C8F80830A0E6204605F04AFC59
:1015C0002368EBE5204605F01DFCF0E56A6942F270
:1015D0002B0313436B612B6943F00B032B61F6E67E
:1015E0000323E360ABE647F6F0731D423FF4B0AD72
:1015F000C6EBC606C5F30A15384604EB86062A462E
:10160000D6F8081202F0DCFED6F80822D6F814321A
:101610002A4420681D44C6F80822C6F8145297E5EB
:10162000D8F84830D8F844201344C8F8483014E6B5
:10163000060402D54FF400429A60204605F0AEFB46
:10164000B2E70021204684F8F41305F0C5FC06E754
:1016500020229A601AF0080F3FF450AE026C98688E
:101660003C498A42E4D8204605F098FBA0E71CF0EC
:10167000080F22D037498A4205D91CF4004F02D006
:101680004FF400429A602046049305F087FB04F56E
:1016900071720121206802F07BFF0822049B9A608E
:1016A00027E604F5717202F073FF206833E60397B2
:1016B000ABE5DDF81CB027684FE71CF0200FC7D161
:1016C0001CF0280FC6D123498A4202D91CF4004FCE
:1016D00039D11A693146D9F808322046D9F804625E
:1016E000C2F312023344B21AC9F80832C9F81422FC
:1016F00005F05AFBBBF1000F7FF4FBADD4F81032BC
:10170000002B7FF4F6AD04F571720121206802F020
:101710003FFFEEE54FF400421AF0080F9A603FF4E5
:10172000EDAD026C986834E704F57172206802F040
:101730002FFF3DE78346C3E404F571720121206861
:1017400002F026FF97E54FF400429A6082E700BF5F
:101750000A31544F0A30544F90F8BC23012A01D16A
:101760000220704710B50122044684F83810006842
:1017700084F8BC2302F090FE002084F8BC0310BD66
:1017800011F0800F70B501F00F044FF01C0126D14D
:10179000C4EBC40501FB0401002600EB850501F53F
:1017A000FE7185F8FD614D780C708A60CB7005B1D3
:1017B000CC80022B10D090F8BC33012B01D1022039
:1017C00070BD04460123006884F8BC3302F0D8FBE6
:1017D000002084F8BC0370BD00230B71EBE7C4EB61
:1017E000C405012601FB040100EB85053C3185F8A9
:1017F0003D60D8E711F0800F01F00F034FF01C019E
:1018000010B51CD1C3EBC30201FB0301002400EBA4
:10181000820201F5FE7182F8FD410B7090F8BC3335
:10182000012B01D1022010BD04460123006884F879
:10183000BC3302F0EDFB002084F8BC0310BDC3EB09
:10184000C302012401FB030100EB82023C3182F858
:101850003D40E2E770B501F00F0500261C21C5EB05
:10186000C50401FB050100EB840401F5FE71C4F819
:101870000822C4F8103284F8FC51C4F8146284F8C9
:10188000FD6103690068012B08BFC4F80C22DAB2BD
:101890001DB102F0F7FB002070BD02F0E9FC002052
:1018A00070BD00BF01F00F01C1EBC10100EB810170
:1018B000D1F81402704700BFF8B501F00F050126FA
:1018C00000271C21C5EBC50401FB050100EB8404C6
:1018D0003C31A264236584F83C50676584F83D6020
:1018E00003690068B34208BFE264DAB21DB102F0D6
:1018F000C9FB0020F8BD02F0BBFC0020F8BD00BF12
:1019000038B5436801F00F059D4216D80B0621D467
:101910001C24C1EBC103002204FB010100EB830383
:1019200001F5FE7183F8FD2101230D708B7090F895
:10193000BC239A4203D1022038BD012038BD0446A1
:1019400080F8BC33006802F04FFD7DB1002084F8C0
:10195000BC0338BD1C21C5EBC503012201FB0501F9
:1019600000EB83033C3183F83D20DDE704F5717221
:10197000217C206802F00CFEE8E700BF38B5426821
:1019800001F00F03934218D811F0800FC3EBC3028C
:101990004FF01C011ED101FB0301002400EB820269
:1019A00001F5FE7182F8FD4100250B708D7090F8F5
:1019B000BC33012B03D1022038BD012038BD0446C1
:1019C0000123006884F8BC3302F03AFD84F8BC536C
:1019D000284638BD012401FB030100EB82023C31A3
:1019E00082F83D40E0E700BF30B405686C6AC9B1D9
:1019F000AB6A013904EB13440BD0002303F1400020
:101A0000013305EB8000DBB240688B4204EB1044ED
:101A1000F4D3403144EA0244002005EB81014C60DC
:101A200030BC704744EA02440020AC6230BC7047CE
:101A3000036800205962704703680121084A30B4E6
:101A4000C0F8FC1304469969002541F0006184F850
:101A5000F45328469961596D0A4330BC5A65704762
:101A6000030000101B4A1C4B116C41F0805130B533
:101A7000116483B0126C1C4602F080520192019AEC
:101A80001A6842F480321A60FEF706FE054605E049
:101A9000FEF702FE401BB0F57A7F17D86368DA03C1
:101AA000F6D523680C4D43F400332360FEF7F4FDB4
:101AB000044605E0FEF7F0FD001BB0F57A7F05D87F
:101AC0006B689B03F6D5002003B030BD032003B044
:101AD00030BD00BF0038024000700040002800F018
:101AE000D08103682DE9F041DD0782B0044630D58E
:101AF000AA498A6802F00C02042A00F019818A6857
:101B000002F00C02082A00F00F816368B3F5803FF1
:101B100000F05281002B00F0DB80B3F5A02F9F4B2B
:101B20001A6800F0A68122F480321A601A6822F442
:101B300080221A60FEF7B0FD984D064605E0FEF7DC
:101B4000ABFD801B642800F2EB802B689A03F6D56E
:101B500023689F0729D5914A916811F00C0F00F076
:101B60008280916801F00C01082979D0E368002B8C
:101B700000F00981894B1A681D4642F001021A6083
:101B8000FEF78AFD064605E0FEF786FD801B02286B
:101B900000F2C6802B689807F6D52B68226923F0DF
:101BA000F80343EAC2032B6023681A071FD45D07BA
:101BB00036D57A4B1A6CD00073D50025784B1A684D
:101BC000D10540F19C80A368012B00F0FB80002B25
:101BD00000F0B880052B714B1A6F00F00C8122F0D9
:101BE00001021A671A6F22F004021A67EFE06369B4
:101BF000002B43D0694B5A6F1D4642F001025A67D1
:101C0000FEF74AFD064605E0FEF746FD801B02286A
:101C100000F286806B6F9B07F6D523685D07C8D4FA
:101C2000A269CAB15D4B996801F00C01082921D065
:101C3000022A1A6800F0E78022F080721C461A60BF
:101C4000FEF72AFD054604E0FEF726FD401B0228AC
:101C500066D823689B01F7D4002002B0BDE8F0816C
:101C60005268560282D44D4A1268950724D5E2681C
:101C7000012A21D0012002B0BDE8F081474B5A6F04
:101C80001D4622F001025A67FEF706FD064604E0F3
:101C9000FEF702FD801B022842D86B6F9F07F7D426
:101CA000BBE71A6C012542F080521A641B6C03F0EA
:101CB00080530193019B81E7384920690A6822F02B
:101CC000F80242EAC0020A601A077FF570AF8EE799
:101CD000324B1A681D4622F480321A601A6822F4C8
:101CE00080221A60FEF7D8FC064604E0FEF7D4FC1A
:101CF000801B642814D82B689B03F7D428E71A6844
:101D00001E4642F480721A60FEF7C6FC074633682E
:101D1000DA053FF558AFFEF7BFFCC01B6428F6D9C3
:101D2000032002B0BDE8F0814A6850027FF5EDAEB5
:101D30001A4A126891037FF50CAF6268002A7FF49B
:101D400008AF97E7154B41F288381A6F1E4622F00C
:101D500001021A671A6F22F004021A67FEF79CFC50
:101D6000074604E0FEF798FCC01B4045D8D8336F07
:101D70009807F7D4002D3FF453AF084A136C23F0B3
:101D8000805313644CE7054B1A681D4622F001028C
:101D90001A60FEF781FC064609E000BF00380240E9
:101DA00000700040FEF778FC801B0228B8D82B6832
:101DB0009907F7D42368F8E6334A136843F480336D
:101DC0001360B7E6304A136F43F001031367FEF761
:101DD00063FC2D4E804641F2883705E0FEF75CFC3F
:101DE000A0EB0800B8429BD8336F9B07F6D5002DB7
:101DF0003FF416AFC1E742F004021A671A6F42F0CF
:101E000001021A67E3E722F080721D461A60FEF7AE
:101E100043FC064605E0FEF73FFC801B02283FF628
:101E20007FAF2B689901F6D4226AE369616A134394
:101E3000E06AA26A43EA8113216B5208124C43EA1A
:101E40000063013A43EA017343EA02436B602B6883
:101E500043F080732B60FEF71FFC054605E0FEF79C
:101E60001BFC401B02283FF65BAF23689A01F6D5A6
:101E7000F2E642F480221A601A6842F480321A6054
:101E800058E60120704700BF00380240164908B5E7
:101E90008B6803F00C03042B1BD0082B17D14A6866
:101EA0004B6802F03F02496813F4800313D10F48D6
:101EB000C1F38811A1FB0001FEF72AFA0A4B5B6807
:101EC000C3F3014301335B00B0FBF3F008BD0748E7
:101ED00008BD074808BD0648C1F388110023A1FBCF
:101EE0000001FEF715FAE9E7003802400024F4008B
:101EF00000127A0078B14A4A136803F00F038B424C
:101F00000BD2136823F00F030B431360136803F025
:101F10000F03994201D00120704703682DE9F04179
:101F20009D0714D55C0704D53E4CA26842F4E052EC
:101F3000A2601A0704D53B4CA26842F46042A2603A
:101F4000384C8568A26822F0F0022A43A260DF07BD
:101F500004460D4621D54268324B012A1B685BD0EE
:101F6000022A53D0990728D52E4941F288388B6828
:101F70000E4623F0030313438B60FEF78DFB0746E9
:101F800004E0FEF789FBC01B404542D8B368626895
:101F900003F00C03B3EB820FF3D1214A136803F073
:101FA0000F039D420CD2136823F00F032B431360E1
:101FB000136803F00F039D4202D00120BDE8F081B9
:101FC00023685A0706D51749E0688A6822F4E05268
:101FD00002438A601B0707D5124A2169936823F4DC
:101FE000604343EAC1039360FFF750FF0D4B0E4976
:101FF0009B680E4AC3F30313CB5C20FA03F3002063
:102000001360FEF70DFB0020BDE8F0819801ABD412
:10201000D3E70320BDE8F0819E03A5D4CDE700BF40
:10202000003C0240003802407CD9000840010020FA
:10203000014B1868704700BF40010020044B054A5F
:102040009B680549C3F382230868D35CD840704776
:10205000003802408CD9000840010020044B054A9A
:102060009B680549C3F342330868D35CD840704786
:10207000003802408CD900084001002003682DE997
:10208000F04313F0010583B004460BD09D4A9168DC
:1020900021F400019160456B91682943B5FA85F5FB
:1020A0006D09916013F4002610D09649E66BD1F8C3
:1020B0008C20B6F5801F22F4401242EA0602C1F8D5
:1020C0008C2000F0C081B6FA86F67609D90210D5C8
:1020D0008C48216CD0F88C20B1F5800F22F440029E
:1020E00042EA0102C0F88C2000F0AB81002908BF51
:1020F000012613F0807F18BF01259A0600F15A814E
:10210000DA060CD57F4AD2F88C1021F08071C2F823
:102110008C10D2F88C10A06B0143C2F88C105F04B5
:1021200008D57849606ED1F8902022F440320243FD
:10213000C1F89020180408D57249A06ED1F89020FB
:1021400022F440220243C1F89020D90308D56D49FA
:10215000E06ED1F8902022F440120243C1F89020A2
:102160009A0308D56749206FD1F8902022F44002E5
:102170000243C1F890205F0608D56249606CD1F82F
:10218000902022F003020243C1F89020180608D5DF
:102190005C49A06CD1F8902022F00C020243C1F8F7
:1021A0009020D90508D55749E06CD1F8902022F04D
:1021B00030020243C1F890209A0508D55149206D9C
:1021C000D1F8902022F0C0020243C1F890205F05B0
:1021D00008D54C49606DD1F8902022F4407202433A
:1021E000C1F89020180508D54649A06DD1F8902077
:1021F00022F440620243C1F89020D90408D5414935
:10220000E06DD1F8902022F440520243C1F89020B2
:102210009A0408D53B49206ED1F8902022F4404220
:102220000243C1F890205F0208D53649A06FD1F86B
:10223000902022F080620243C1F8902098020CD5D1
:102240003049E06FD1F89020B0F1006F22F00062C9
:1022500008BF01260243C1F89020590308D5294937
:10226000606FD1F8902022F040720243C1F89020B4
:102270001A0209D52349D4F88000D1F8902022F021
:1022800080520243C1F890205F0109D51D49D4F85E
:102290008400D1F8902022F000520243C1F890202F
:1022A000180109D51749D4F88800D1F88C2022F0FC
:1022B00000720243C1F88C20D9000BD4B3F1007F27
:1022C00016D0EA0714D4012E00F0C080002003B01D
:1022D000BDE8F0830B49B3F1007FD4F88C00D1F84E
:1022E0008C2022F0806242EA0002C1F88C20E8D102
:1022F000044B1A681D4622F080621A60FEF7CCF982
:10230000074606E000380240FEF7C6F9C01B642805
:102310004CD82B681B01F7D42368DF0703D5626B09
:10232000002A00F0E1801D0304D5E26BB2F5801FA6
:1023300000F00581D80204D5226CB2F5800F00F0C0
:10234000FE80D90111D59A4D6068D5F88420D5F862
:10235000847002F07062216907F0E0473A4342EA74
:10236000801242EA0142C5F884209A010DD5236902
:1023700062681B04E068A16843EA82138C4A43EA5E
:10238000006343EA0173C2F88430894B1A681D4622
:1023900042F080621A60FEF77FF907462B681B0146
:1023A00091D4FEF779F9C01B6428F7D9032003B054
:1023B000BDE8F0837E4A7F4B116C1F4641F080518F
:1023C0001164126C02F080520192019A1A6842F470
:1023D00080721A60FEF760F9804605E0FEF75CF94E
:1023E000A0EB08006428E1D83B68DB05F6D5704A0D
:1023F000236B116F03F4407011F4407110D08142CF
:102400000ED0116F176F21F4407147F480371767B2
:10241000176F27F4803717671167116FCF0779D4CB
:10242000B0F5407F00F0A78061498A6822F4F81275
:102430008A605F4AC3F30B03116F0B431367236872
:102440005EE6012555E6002601253FE6584B1A6851
:102450001D4622F080521A60FEF71EF9064604E07F
:10246000FEF71AF9801B6428A0D82B689F00F7D4C8
:10247000226810034AD4D1021DD5236CDBB94C4924
:102480006569D1F88830D1F8886003F44033A069D9
:1024900006F0E046334343EA851343EA0063C1F89C
:1024A0008830D1F88C30A06A23F4F853013843EA1D
:1024B0000023C1F88C30920203D5E36FB3F1006FB3
:1024C00062D03B4B1A681C4642F080521A60FEF7FD
:1024D000E3F8054623689B003FF5F8AEFEF7DCF80D
:1024E000401B6428F6D961E7D5F88420D5F88470BC
:1024F00002F44032606807F07067A1683A4342EA2C
:10250000801242EA0172C5F884200CE7E36B002BCD
:10251000B5D0B0E7174641F28838FEF7BDF88146DE
:1025200006E0FEF7B9F8A0EB090040453FF63EAFE4
:102530003B6F9907F5D5236B03F4407070E71C4D92
:102540006068D5F88420D5F8847002F44032E168E0
:1025500007F0E0473A4342EA801242EA0162C5F8D6
:102560008420D5F88C10626A21F01F01013A0A43D9
:10257000C5F88C20E5E60E480F498268194022F420
:10258000F8120A43826054E7094A6569D2F8883034
:10259000D2F8881003F07063206A01F0E0410B4329
:1025A00043EA851343EA0043C2F8883089E700BF55
:1025B0000038024000700040FFFCFF0F0268034635
:1025C00040685168B0F5827F21F0E001516013D07E
:1025D000996AB1F5005F07D1116821F400511160CB
:1025E000116841F40051116001210022032083F899
:1025F0005D1083F85C2070479968B1F5004F02D0F8
:10260000B1F5806FE4D1116821F040011160DFE77E
:1026100070B505460C4616462B6801E0621C04D1D5
:10262000986810F08000F9D170BDFEF735F8801B76
:102630008442F1D82846BDE87040FFF7BFBF00BF15
:10264000F8B506460C4615461F46316805E0B4F558
:10265000C06F00D10A7B6B1C03D188682040F6D183
:10266000F8BDFEF719F8C01B8542EED83046BDE82C
:10267000F840FFF7A3BF00BFF8B5436804460E4615
:102680001746B3F5827F22D03A4631462046FFF7FF
:10269000BFFF054630B1236E032543F020032366B8
:1026A0002846F8BD6368B3F5827FF9D1A368B3F516
:1026B000004F02D0B3F5806FF2D13B4632464FF463
:1026C000C0612046FFF7BCFF0028E4D1E8E783683B
:1026D000B3F5004F02D0B3F5806FD5D122681368EF
:1026E00023F040031360CFE770B50D46164613463E
:1026F0004FF4C0512A460446FFF7A2FF28B1236ECB
:10270000032043F02003236670BD3246294620464D
:10271000FFF77EFF0028F2D133462A464FF4C0610E
:102720002046FFF78DFF0028E9D1EDE72DE9F843BA
:10273000044601200F46904684F85C009946089DA7
:10274000FDF7AAFF94F85D2006466168D2B2012A1F
:1027500010D0B1F5827F08D002200122002384F836
:102760005D2084F85C30BDE8F883A368002BF3D1CA
:10277000042AF1D1B9F1000F18BFB8F1000F23D02E
:1027800017B394F85D30042B02D0052384F85D3034
:102790000023B9F1010FC4F840802366E364236588
:1027A0002368A4F84690A4F84490A4F83E90A76348
:1027B000A4F83C90E0685A6808D8B0F5E06F05D8F6
:1027C00042F480525A6004E00120C6E722F48052AD
:1027D0005A601A68520603D41A6842F040021A601E
:1027E000B0F5E06F3FD8B9F1010F00F0B0800029DB
:1027F00000F0AD800127E38F9BB22BB9B4F84630CF
:102800009BB2002B00F08E8023689A68910704D554
:10281000E28F92B20AB1002F61D19A68D20719D51E
:10282000B4F8462092B2AAB1B4F8462092B2012A76
:1028300064D9DA68216C21F8022BB4F846202164AF
:10284000023A92B2A4F84620B4F8462092B2012A85
:1028500062D90127FDF720FF801B8542CBD86B1C76
:10286000C9D0032079E7002968D0B9F1010F65D0FC
:102870000127E38F9BB223B9B4F846309BB2002BFB
:1028800050D023689A68910703D5E28F92B202B1C3
:10289000D7B99A68D2070FD5B4F8462092B25AB188
:1028A000DB680127226C22F8023BB4F84630226430
:1028B000013B9BB2A4F84630FDF7EEFE801BA84218
:1028C000D7D3681CD5D0CCE7A16B002731F8022BF9
:1028D000DA60E28FA163013A92B2E287D9E7E28F30
:1028E00092B2012A40D9A16B002731F8022BDA609D
:1028F000E28FA163023A92B2E2878EE71A7B012748
:10290000236C1A70B4F84630226C013B3A449BB2F7
:102910002264A4F846309DE75A68012742F48052A9
:102920005A6097E7324629462046FFF7DDFE002829
:102930003FF413AF2023012023660EE737F8022B64
:10294000DA60E38FA763013B9BB2E38790E7E28FF6
:1029500092B2012A15D937F8022BDA60E38FA76308
:10296000023B9BB2E38745E7A26B002712781A73FC
:10297000E28FA16B013A2368013192B2A163E28731
:102980004BE73A781A73E38FA26B013B01329BB29B
:10299000A263E3872EE700BF00285DD0002290F8F5
:1029A0005D302DE9F0418262044603F0FF02002B06
:1029B0004DD0E76802232268B7F5E06F84F85D30F8
:1029C00027F40061136894BF4FF48055002523F06D
:1029D0004003B1F5E06F136035D1A66A236B2BB9C4
:1029E000B7F5E06F8CBF022301232363A1684FF08A
:1029F0000008636820690B4361690343A0690B43C6
:102A0000E1694FEA104E00F4007C0B43616A0EF05E
:102A1000040E40460F43216A0B43616B0F4343EAA8
:102A20000C034FF0010C47EA0E0733433D4313609C
:102A30005560D36923F40063D361C4F8608084F8DF
:102A40005DC0BDE8F08100231E46A362C6E780F8A2
:102A50005C2003F05DFFACE7012070472DE9F041F9
:102A600090F85C4082B0012C03D1022002B0BDE896
:102A7000F0811D4601230446904680F85C300F46E5
:102A8000FDF70AFE94F85D300646012B09D00220BE
:102A90000122002384F85D2084F85C3002B0BDE898
:102AA000F081002F55D0B8FA88F35B09002B50D184
:102AB000A26803212364B2F5004F84F85D10A4F8E6
:102AC000443023662365E364A4F83E80A763A4F83A
:102AD0004630A4F83C80236800F091801A685206C2
:102AE00003D41A6842F040021A60E268B2F5E06F5F
:102AF000626839D9002A79D0B8F1010F76D0E38F16
:102B00009BB283B1226893689F0724D5A36B33F8E7
:102B1000021BD160E18FA363013989B2E187E38FA2
:102B20009BB2002BEED1324629462046FFF7DCFD52
:102B300008B120232366A36833B922680193D368C0
:102B4000019393680193019B206E003018BF012010
:102B50009EE701209CE7FDF79FFD801BA842CED396
:102B6000681CCCD0032093E7002A32D0B8F1010FC3
:102B70002FD0E18F89B20029D5D0226893689907B8
:102B800014D5E38F9BB2012B18D9A16B31F8023B0E
:102B9000D360E38FA163023B9BB2E387E18F89B2ED
:102BA0000029C0D0226893689907EAD4FDF774FD24
:102BB000801B8542DDD86B1CDBD0D3E7A36B1B7871
:102BC0001373E38FA26B013B01329BB2A263E387D5
:102BD000CFE7E28F92B2012A16D937F8022BDA60DA
:102BE000E38FA763023B9BB2E387C2E737F8022B70
:102BF000DA60E38FA763013B9BB2E3877FE71A6844
:102C000042F480421A6069E73A781A73D9E700BF44
:102C10002DE9F041456882B004461746B5F5827F3C
:102C20001E4688461BD094F85C30012B03D102204D
:102C300002B0BDE8F081012384F85C30FDF72CFD83
:102C400094F85D300546012B19D0022001220023A3
:102C500084F85D2084F85C3002B0BDE8F0818368C0
:102C6000002BE0D190F85C300422012B80F85D202D
:102C7000DDD000963B460A46FFF758FDD8E7B8F18D
:102C8000000F73D0B7FA87F35B09002B6ED10421D4
:102C9000E268A36384F85D10B2F5E06F2366A38752
:102CA000A4F84670E364E38723652368C4F8408092
:102CB0005968A4F844708CBF21F4805141F48051CC
:102CC0005960A168B1F5004F5BD019684F0603D475
:102CD000196841F040011960B2F5E06F2CD8B4F8E2
:102CE00046309BB2A3B123689A68D00740D51A7BBF
:102CF000236C1A70B4F84610236C0139013389B281
:102D00002364A4F84610B4F846309BB2002BEAD1F5
:102D10002A4631462046FFF7AFFC08B12023236640
:102D2000206E003018BF012090E7FDF7B5FC401B76
:102D3000864201D8731C22D1B4F846309BB2002BD6
:102D4000E6D023689A68D207EFD5DA68236C23F8B7
:102D5000022BB4F846102364013989B2A4F8461056
:102D6000B4F846309BB2002BEBD1D1E701206DE7E0
:102D7000FDF792FC401B8642B1D8711CAFD00320F6
:102D800064E7196821F4804119609EE730B490F837
:102D90005C40012C02D1022030BC704730BCFFF7F0
:102DA000C5BC00BF0368094AD96841F00101D96078
:102DB00099680A40062A06D0B2F5803F03D01A6807
:102DC00042F001021A600020704700BF07000100B6
:102DD000036841F21111DA6822F00102DA601A6A1E
:102DE0000A4208D1196A40F24442114203D11A68DA
:102DF00022F001021A600020704700BF90F83C20CA
:102E0000012A32D0034602201A6870B483F83D00CC
:102E10000125966808684D4C402883F83C5004EA28
:102E2000060494603DD054D9602872D01FD9702810
:102E30005ED0B0F5005F0FD188684D68CC6840EA7D
:102E40000501906841EA042120F47F40014391602C
:102E5000916841F48041916000220121104683F87D
:102E60003D1083F83C2070BC70470220704750280A
:102E7000F2D1156A146A486825F00A0524F00104A5
:102E8000CE6828431462916921F0F00141EA0611ED
:102E900091611062916821F0700141F057019160D9
:102EA000DAE7156A146A486825F00A0524F0010477
:102EB000CE6828431462916921F0F00141EA0611BD
:102EC00091611062916821F0700141F047019160B9
:102ED000C2E7102804D035D9202801D03028BBD132
:102EE000916840F0070021F0700108439060B3E75B
:102EF00088684D68CC6840EA0501906841EA042181
:102F000020F47F4001439160916841F07701916026
:102F1000A2E7146A4D6824F01004CE681462906928
:102F2000116A20F4704021F0A00140EA063041EA25
:102F3000051190611162916821F0700141F0670103
:102F4000916089E70028CBD086E700BF8800FEFFAC
:102F5000704700BF704700BF704700BF704700BF99
:102F600003681A69910710B5044602D5DA6892071A
:102F700065D41A69520702D5DA6850074CD41A6929
:102F8000110702D5DA68120734D41A69D00602D5BF
:102F9000DA68D1061ED41A69D20702D5DA68D007DA
:102FA0006BD41A69110602D5DA6812066DD41A6953
:102FB000D00502D5DA6811066FD41A69520602D517
:102FC000DA68500651D41A69910602D5DA68920679
:102FD00043D410BD6FF01001082220461961DB694F
:102FE000227713F4407F6CD0FFF7B4FF00222368F0
:102FF0002277D0E76FF00801042220461961DB69CF
:1030000022779B075AD1FFF7A3FF2046FFF7A4FFC3
:10301000002223682277B8E76FF0040102222046DD
:1030200019619B69227713F4407F44D1FFF790FF29
:103030002046FFF791FF0022236822779FE76FF079
:103040000201012219619B69027799072DD0FFF7D0
:1030500081FF0022236822778BE76FF02002204651
:103060001A61BDE8104000F0F9B86FF04002204648
:103070001A61FFF773FF2368A5E76FF0010220468E
:103080001A6103F0DFF823688BE76FF080022046B7
:103090001A6100F0E5F8236889E76FF48072204632
:1030A0001A6100F0DFF8236887E7FFF751FF204639
:1030B000FFF752FFCDE7FFF74DFFBCE7FFF74AFFF1
:1030C000A6E7FFF745FF2046FFF746FF8EE700BF64
:1030D000F0B4384EB0F1804F0368A0EB0606B6FAA4
:1030E00086F64FEA561629D046BB334A904247D05F
:1030F00002F58062904243D002F580622F4DA842D3
:1031000018BF90420CBF0127002743D02C4A9042A1
:103110001DD002F58062904219D002F58062904283
:1031200015D0A2F59832904211D002F580629042FB
:103130000DD002F5806290420DD108E01F4F23F0C0
:1031400070034D68C71B2B43B7FA87F77F0923F439
:103150004073CC6823434A6923F080038C6813438F
:103160000A680360C462826226B91FB90123F0BCF9
:10317000436170470B6903630123F0BC43617047EF
:103180000E4F23F070034A68C71B1343B7FA87F743
:103190007F09DCE7471B23F070034C689042B7FAC5
:1031A00087F743EA04034FEA5717D0D0002FCED158
:1031B000ACE700BF000001400004004000040140F3
:1031C00000400140B8B190F83D3010B503F0FF0267
:1031D00004465BB102232068211D84F83D30FFF7CF
:1031E00077FF0123002084F83D3010BD80F83C209B
:1031F00003F0C4FBEEE70120704700BF90F83C30BD
:10320000012B26D002230246F0B40468124D80F848
:103210003D30AC426368A06816D005F58065AC42CD
:1032200012D00F6820F08000896823F07003002519
:1032300001263B43014328466360A16082F83D605C
:1032400082F83C50F0BC704723F470034D682B4368
:10325000E7E70220704700BF00000140704700BF51
:10326000704700BF704700BF436F212B00D07047ED
:10327000B0F852309BB273B1C26C016832F8023BB5
:10328000C3F308038B62B0F85230C264013B9BB2B7
:10329000A0F85230704703681A6822F080021A6062
:1032A0001A6842F040021A60704700BF436F212B3A
:1032B00000D07047B0F852309BB263B1C26C036863
:1032C00012F8011B9962B0F85230C264013B9BB204
:1032D000A0F85230704703681A6822F080021A6022
:1032E0001A6842F040021A60704700BFA8B1242259
:1032F00038B503680025426704461A6822F00102C7
:103300001A601D605D609D6003F0A8FBE56784F8AE
:10331000705028466567A56738BD0120704700BF1B
:103320000346406F202801D00220704729B3B2FA2B
:1033300082F0400908BB70B493F87040012C24D08F
:103340009C6801262125A3F85220B4F5805FD86738
:10335000D964A3F85020586683F870605D670ED07A
:103360000B4A5A66196800240A68204683F87040A0
:1033700042F080020A6070BC7047012070471A69F1
:10338000002AEDD1034A5A66ECE70220F3E700BFBA
:10339000AD32000869320008836F202B01D0022073
:1033A0007047002933D0B2FA82F35B09002B2ED18B
:1033B00030B490F87040012C3BD084680125416501
:1033C000B4F5805FA0F85820A0F85A20036680F872
:1033D00070501ED0002C2ED10369002B31D1FF2359
:1033E000A0F85C30222302680021C16783679368DC
:1033F00043F0010393601E4B03661168002341F400
:10340000907180F870301846116030BC7047012010
:1034100070470169C9B922230268C16740F2FF14ED
:103420008367936813492B43A0F85C40936001665F
:10343000E3E70220E9E7B4F1805F12D0A0F85C3046
:10344000D0E77F23A0F85C30CCE702682224C36772
:10345000FF2184679368A0F85C1043F00103936038
:10346000C9E70369002BECD03F23A0F85C30B9E733
:1034700079340008D5340008826F222A026838B5F2
:1034800004D0936943F00803936138BD526A90F801
:103490005C40416D22400A70B0F85A20416D013AFB
:1034A000013192B24165A0F85A20B0F85A2092B288
:1034B000002AEAD1016820250C6824F490740C607D
:1034C0008C6824F001048C600266856703F058FF65
:1034D00038BD00BF826F222A38B505D002689369D3
:1034E00043F00803936138BD0468B0F85C50626A29
:1034F000416D2A4021F8022BB0F85A204165013A6B
:1035000092B2A0F85A20B0F85A2092B2002AEAD11A
:103510002168202521F490712160A16821F001012A
:10352000A1600266856703F02BFF38BD704700BFBE
:103530000368DA6970B516071D680446996857D0A4
:1035400011F001015BD0D60707D5E80505D50120AC
:103550001862E06F40F00100E067C9B211EA520062
:1035600072D002260146C2F380001E62E66F46F06A
:103570000406E66728B104201862E06F40F00200FC
:10358000E067160703D5A80661D400295FD1E16F73
:1035900000292CD0960606D5A80604D5226E12B1B5
:1035A000204690472368E56F9968490602D415F0D4
:1035B00008055ED01A682020002122F490721A605B
:1035C0009A6822F001029A60A0679A682166520602
:1035D00046D59A68E16E22F040029A6000293FD0F9
:1035E000264B08460B65FDF7F7F800283CD170BD67
:1035F000960607D5A90605D5036EDBB9F7E715F4DE
:10360000907F1AD116060FD45106F0D56A06EED572
:103610001A6820250021204622F040021A606567C2
:10362000616603F0D5FE70BD2806EDD5636E002BF4
:10363000DDD02046BDE87040184712F001000DD0E3
:1036400015F4807083D1014601EA920092E70821C7
:103650001962E16F41F00801E16798E7014690E7E0
:103660002046FFF763FF70BDE06EBDE87040036D5C
:1036700018472046FFF75AFFE56770BD81360008FE
:1036800008B50022836BA3F85A201846A3F85220ED
:10369000FFF74CFF08BD00BFF8B50446B74EB84869
:1036A000A368226961691A432368E5690A431968B6
:1036B000E768834206EA010642EA0502A16942EA96
:1036C0000602266A1A6041EA0602596821F440514E
:1036D00041EA07015960996821F4306142EA010228
:1036E0009A6056D0A74A934200F0E480A64A9342DB
:1036F00000F09E80A54A934227D0A54A93420ED05F
:10370000A44A934266D0A44A93427CD0A34A9342EF
:1037100000F020810023012023666366F8BDA04BE2
:10372000D3F8903003F44073B3F5807F73D015D98C
:10373000B3F5007F00F08780B3F5407F00F0C780CD
:10374000B5F5004FE6D010232DE0954BD3F890301F
:1037500003F0C003402B5ED000F2B480002BEFD109
:10376000B5F5004F00F0E480FEF768FC626800EBFE
:103770005203B3FBF2F39BB2A3F110014FF6EF72C9
:103780009142C7D822680020D36000232366636675
:10379000F8BD834B834AD3F8903003F00303D35C26
:1037A000B5F5004F6ED0082BB4D801A252F823F023
:1037B00069370008F53700084D380008153700084C
:1037C0001F3800081537000815370008153700089E
:1037D0005D380008724BD3F8903003F44063B3F5C2
:1037E000806F18D000F29A80002B46D1B5F5004FBB
:1037F00000F08A80FEF732FC626800EB5203B3FBF4
:10380000F2F39BB2B8E7664BD3F8903003F4405321
:10381000B3F5805F2AD1B5F5004F00F08C80FEF73C
:1038200035FB626800EB5203B3FBF2F39BB2A3E7F4
:103830005B4BD3F8903003F03003102BEBD040F209
:103840008580202B71D1B5F5004F77D06268564B3B
:1038500003EB5203B3FBF2F39BB28DE762685308AC
:1038600003F50043B3FBF2F39BB285E76ED9B3F5E2
:10387000005FE8D0B3F5405F29D0B5F5004F7FF485
:1038800049AF1023082B3FF645AF01A252F823F0B1
:1038900031390008093900083D390008153700089A
:1038A00037390008153700081537000815370008A4
:1038B000D53800083A4B3D4AD3F8903003F00C035A
:1038C000D35C6DE7802BBED0C02B7FF439AFB5F54C
:1038D000004FC3D16268530803F58033B3FBF2F3A2
:1038E0009BB2A3F110014FF6EF7291423FF612AF77
:1038F00023F00F02C3F34203216800201343CB607F
:10390000002323666366F8BDFEF7A8FB62685308D0
:1039100003EB4003B3FBF2F39BB2E2E7B3F5006FB6
:1039200091D0B3F5406FD2D0A7E7302BCFD0A4E72A
:10393000FEF784FBEAE7FEF7A9FAE7E762681C4BAB
:1039400003EB5203B3FBF2F39BB2CAE7002B3FF445
:1039500007AF92E7124BD3F8903003F44043B3F52E
:10396000804F3FF458AF7FF6F9AEB3F5004F3FF408
:103970006AAFB3F5404FAAD0E2E600BFF369FFEFAC
:10398000001001400044004000480040004C00404E
:10399000005000400014014000780040007C0040CE
:1039A0000038024008D500080024F4000CD50008B7
:1039B0000048E801436ADA0710B406D50168846A52
:1039C0004A6822F4003222434A609C0706D5016807
:1039D000C46A4A6822F4803222434A60590706D5F5
:1039E0000168046B4A6822F4802222434A601A0765
:1039F00006D50168446B4A6822F4004222434A60BB
:103A0000DC0606D50168846B8A6822F48052224362
:103A10008A60990606D50168C46B8A6822F4005250
:103A200022438A605A060AD50168046C4A68B4F5D4
:103A3000801F22F4801242EA04024A600BD01B0667
:103A400006D50268816C536823F400230B4353604E
:103A50005DF8044B70474A68446C22F4C00222436C
:103A60004A60ECE72DE9F843089D80460F4616466C
:103A70009946D8F8004001E06B1C0AD1E06937EAAA
:103A800000030CBF01200020B042F5D00020BDE8AB
:103A9000F883FCF701FEA0EB0900854201D3002D5D
:103AA000E7D1D8F800302021002403201A6822F43E
:103AB000D0721A609A6822F001029A60C8F87410F5
:103AC00088F87040C8F87810BDE8F88370B5002514
:103AD000044682B0C567FCF7DFFD22681268130751
:103AE00008D4002320221846626784F87030A26749
:103AF00002B070BD6FF07E4603462A464FF40011B7
:103B000000962046FFF7AEFF0028EAD0032002B05F
:103B100070BD00BF70B3436F10B50446FBB122689F
:103B2000242320466367136823F001031360FFF723
:103B3000B3FD012818D0636AC3B9236820465A68C8
:103B400022F490425A609A6822F02A029A601A6817
:103B500042F00102BDE810401A60FFF7B7BF80F8DD
:103B6000703002F041FFDAE7012010BD2046FFF778
:103B700021FFE2E7012070470B4B01E0013B10D031
:103B80000269002AFADA0369074A43F00103036174
:103B900001E0013A05D0036913F00103F9D1184699
:103BA00070470320704700BF400D030084B070B51C
:103BB0000A9E05AD0446012E85E80E0018D0C368A4
:103BC00043F04003C360FFF7D7FFA36B43F4803398
:103BD000A363089B012B07D1A36843F00603A360EE
:103BE000A36843F02003A360BDE8704004B07047B1
:103BF000826B0C4B22F48032119982630129C268D6
:103C000003EA0203C360C36823F44013C36003D014
:103C10002046FFF7B1FFDCE7C36843F48013C360BD
:103C2000F6E700BFBFFFBDFF032A034610B40CD068
:103C30004FF41054D968002021F47051D960DA682B
:103C400022435DF8044BDA607047294A29480A4448
:103C500082423AD9284A29480A44824232D9284A1B
:103C600028480A44824233D9274A00F5C3300A441F
:103C7000A030824232D9254A25480A4482422AD9B4
:103C8000244A00F592200A4400F57870824228D92F
:103C9000214A00F5C3200A4400F520708242C7D9AA
:103CA0001E4A00F5B7100A4400F5587082421BD92D
:103CB0001B4A1C4C0A44A2428CBF4FF4C0544FF420
:103CC000E054B7E74FF46054B4E74FF47054B1E7F1
:103CD0004FF45054AEE74FF43054ABE74FF4405438
:103CE000A8E74FF42054A5E74FF40054A2E700BF23
:103CF000405327FFFF340C00401E1BFF3F420F00C4
:103D000000DC0BFF7F4F1200808CF9FE60B6E5FEF1
:103D10005FE3160000D3CEFEC05BB3FE00CA91FE87
:103D2000E05459FEDF9C410002460020936843F0B6
:103D300001039360704700BF02460020936823F0A0
:103D400001039360704700BF08B5C368012923F0E1
:103D5000C043C3600BD041B9C36843F08043C36024
:103D60003220FCF79FFC002008BD012008BDC3687D
:103D700043F00053C3603220FCF794FC002008BDE0
:103D800084B02DE9F04F00240AAEDDF834B00F46C0
:103D9000DDF83CE0254686E80E00149E0C9A04F1FE
:103DA0004003013400EB83030F2C5D60F7D1836B7C
:103DB000002E40F0998023F400138363036843F0DE
:103DC00040030360036843F0800303600023BEF1F7
:103DD000010F00F50064C0F8003ED0F80038C0F8CC
:103DE0000038D0F8003800F08380BEF1030F7FD098
:103DF00043F00303C0F800384FF484634C4A036176
:103E000002E0013A00F08B80036913F02003F8D13F
:103E10009C461021464A016101E0013A7CD00169CB
:103E2000CB06FAD4002121616161E161D7B100F5CF
:103E300010624FF090494FF0006A0D464FF67F3305
:103E400006E015600131156193602032B94231D02E
:103E5000D2F800E0BEF1000FF3DA002965D0C2F815
:103E60000090EFE72269BBF1010F22F4807222611A
:103E700046D000216FF0804281614261BBF1000FAA
:103E800003D1826942F0100282618469294A109943
:103E90002243826119B1826942F008028261012ED7
:103EA00003D18169244A0A4382616046BDE8F04F2C
:103EB00004B07047002700F530624FF090494FF092
:103EC000006A3B464FF67F3807E013600137136105
:103ED000C2F808802032B942C4D01568002DF4DA47
:103EE00007B3C2F80090F1E743F4001383636DE772
:103EF000002A3FF47FAF43F00103C0F800387BE7AE
:103F00000E4F00250E4A6FF080412763276B3A431E
:103F1000226385614161B8E74FF0010C82E74FF001
:103F2000010C76E7C2F800A0D0E7C2F800A089E74C
:103F3000400D030000383C80040000400001800078
:103F4000030001008901074A41F02001016101E0FD
:103F5000013A05D0036913F02003F9D118467047E0
:103F600003207047400D0300D0F8083813F0060016
:103F700004D013F0020F0CBF00200320704700BFD5
:103F8000F0B44A780C78012A1FD000F5006204F0E2
:103F90000F054FF4803300EB4410D469AB4023434A
:103FA000D361D0F8003B1B040CD48A68174BC2F3D2
:103FB0000A02CC78D0F8001B134343EA84430B4336
:103FC000C0F8003B0020F0BC704704F00F05D0F8AB
:103FD0001C7800F5006600EB4413AA403A43F261F6
:103FE000D3F800291204EDD48A680848C2F30A0203
:103FF000CD78D3F80019104340EA854040EA845058
:104000000843F0BCC3F8000900207047008000108E
:1040100010B44B780978012B01F00F0417D04FF43E
:10402000803300F5006200EB41101449A340D46BCB
:10403000DB431C40D463D46923405DF8044BD36157
:10404000D0F8003B1940C0F8001B0020704700F575
:104050000062A34000EB41100949D46BDB431C40D4
:10406000D463D46923405DF8044BD361D0F80039A0
:104070001940C0F800190020704700BF0078F3EF26
:10408000007833EC2DE9F0414C780B78012C57D0B7
:1040900000EB4313734F4D6903F53064D4F810E01F
:1040A000714E0EEA0707276127693E4026612DB34E
:1040B0008E68012A6D4F3544D4F810E005F1FF35C4
:1040C000B5FBF6F51FFA85FC07EAC54506FB0CF6BD
:1040D00045EA0E05C6F312062561256946EA05067E
:1040E000266118D0CA78012A1CD0D3F8002B42F0E0
:1040F0000442C3F8002B0020BDE8F0818D68012A3E
:104100002669C5F3120545EA06052561256945F4CA
:1041100000252561E6D1CA68002AE3D06261CA7829
:10412000012AE2D1D0F8082812F4807FD3F8002BBE
:104130000CBF42F0005242F08052C3F8002BD4E78B
:104140004D6900EB4313002D3AD003F51063D1F80D
:1041500008E0D3F810C0C5F3120605EB0E07DFF830
:104160000481013F0CEA0808DFF8FCC0C3F81080A6
:10417000D3F81080B7FBFEFE08EA0C0C3B4FC3F8E7
:1041800010C007EACE47D3F810E047EA0E071F61D8
:104190001F693E431E61CE78012E4BD0012A5DD0AF
:1041A0000A78D0F8341802F00F0294400C43C0F89B
:1041B00034481A68002042F004421A60BDE8F081D9
:1041C00003F51063284E1F69012A264C06EA0706EC
:1041D0001E611E6946F400261E611E6904EA06047B
:1041E0001C61CE7836D0012EE3D1D0F8084814F403
:1041F000807F1C680CBF44F0005444F080541C6065
:104200001C6844F004441C60002A7FF474AFADB213
:104210000335AD083FF46FAF0A78CB6800EB02308E
:1042200003EB850100F5805053F8042B8B420260AC
:10423000FAD160E71C69012A24F0C0441C611C69A2
:1042400044F000541C61D0D10C69002CCDD016462E
:104250005C61C8E70C69002CC5D0F9E70C69002C3B
:10426000F6D1A6E70000F8FFFFFF07E00000F81F07
:10427000F0B54B780C78012B24D000EB4410424D64
:104280004E6900F530631F69404C3D401D611D695A
:104290002C401C618C689EB91D69C4F31204012A6C
:1042A00045F400251D611D6944EA05041C613FD0E9
:1042B000D0F8003B43F00443C0F8003B0020F0BDC1
:1042C0004C61E9E74D69002D37D000EB44132E4FC8
:1042D000D1F808E003F51063D3F810C02B4E7545F4
:1042E0000CEA07071F611F6906EA07061E611E69BF
:1042F0003DD946F40026C1F814E0CEF31205012A98
:104300001E611E6945EA06051D612BD0BEF1000F36
:1043100008D004F00F040122D0F83418A2400A4358
:10432000C0F834281A68002042F004421A60F0BD38
:10433000CA68002ABCD05A61BAE700EB4410134E99
:10434000A5F50025012A00F51063186906EA0006A4
:104350001E61186940F400201861186905EA00051B
:104360001D61DFD10A69002ADCD05A61DAE746F420
:104370000026C5F31205012A1E611E6945EA0605DD
:104380001D61C6D1EEE700BF0000F8FFFFFF07E0A8
:1043900010B49DF8044074B903339C080BD000EBB3
:1043A00002300B4601EB840100F5805053F8042BDA
:1043B0008B420260FAD100205DF8044B704700BFC9
:1043C000033292080DD001EB820210B400F5805444
:1043D0000846236840F8043B9042FAD15DF8044B4C
:1043E00070470846704700BF4A780B78012A00EBF7
:1043F000431012D0D0F8002B002A06DB2BB1D0F8E6
:10440000003B23F08043C0F8003BD0F8003B43F46E
:104410000013C0F8003B00207047D0F80029002AA4
:1044200006DB2BB1D0F8003923F08043C0F8003907
:10443000D0F8003943F40013C0F800390020704769
:104440004A780B78012A00EB431013D0D0F8003BD8
:1044500023F40013C0F8003BCB78023B012B01D9B9
:1044600000207047D0F8003B43F08053C0F8003B79
:1044700000207047D0F8003923F40013C0F8003949
:10448000CB78023B012BEBD8D0F8003943F08053B6
:10449000C0F80039E4E700BF034609010020D3F863
:1044A000002801F4FE6122F4FE62C3F80028D3F86C
:1044B00000281143C3F80018704700BF00F50062E0
:1044C000032008B5536823F002035360FCF7EAF8B1
:1044D000002008BD00F50062032008B5536843F0D2
:1044E00002035360FCF7DEF8002008BD42698069D2
:1044F00010407047D0F8183800F50060C0691840C7
:10450000000C7047D0F8183800F50060C0691840FA
:1045100080B2704700EB411100F50060D1F8082B24
:1045200040691040704700BF00F5006200EB411089
:1045300010B401F00F041169536B00F51060E340F3
:1045400080685DF8044BDB01DBB20B431840704719
:10455000406900F001007047D0F8001900F50063D1
:104560000A4A0A40C0F800299A6802F00602042AA2
:1045700005D1D0F8002942F00302C0F800295A689A
:10458000002042F480725A60704700BF00F8FFFFBD
:1045900010B4134B046C9C421AD800F53060002311
:1045A00001290361036943F400230361036943F0B4
:1045B00018030361036943F0C043036104D14261FE
:1045C000036843F08023036000205DF8044B7047CC
:1045D000D0F8003B00F53060002BE0DAF4E700BFD4
:1045E0000A30544FD0F8943210B5D0F890425BB1F5
:1045F00094F80002FF2807D09B68214694F8012216
:104600009847FF2384F80032002010BD4323038025
:104610000048704740000020432303800048704753
:10462000840000204323038000487047D40000200A
:104630000A23038000487047C800002038B50446AC
:10464000D0F8905202F0C4FCD4F89032C5F80C02B5
:104650004BB1D4F8943205F50371D5F80402DB6848
:104660009847002038BD022038BD00BFF8B5D0F80B
:104670009062AEB101EB810500EB8505EF695FB19A
:10468000D0F89822C1EBC10302EB83035B6CB7FB4C
:10469000F3F403FB14742CB10020C6F81402F8BD27
:1046A0000220F8BDEC612346224602F075FC20464C
:1046B000F8BD00BF2DE9F0410B7882B000240D4613
:1046C00013F060080646D0F890728DF80540ADF8FA
:1046D00006401CD0B8F1200F13D1B1F80680B8F114
:1046E000000F46D01B062BD44B78424687F8018238
:1046F000394687F8003200F033FD204602B0BDE8AD
:10470000F08100F0E7FC022002B0BDE8F0814C78B7
:104710000A2C23D00B2C0DD0002CF2D190F874323F
:10472000032B2ED03046294600F0D4FC022002B0E4
:10473000BDE8F08190F87432032BF3D14046E3E7F3
:10474000D0F894324246394668789B689847EA88A0
:104750003946304600F0EEFC2046D5E790F874323A
:10476000032BDFD101220DF1050100F0E3FC4046EF
:10477000CAE7D0F89432424648789B68984740464A
:10478000C2E702220DF1060100F0D4FC2046BBE78F
:1047900038B504460025812102F0B2FB0121E56213
:1047A000204602F0ADFBC4F858512046822102F0A9
:1047B000A7FBD4F8903225644BB1D4F894325B68EF
:1047C0009847D4F8900205F053FBC4F890520020AB
:1047D00038BD00BF037C2DE9F04104460125BBBB79
:1047E0004FF400730222812102F078FBE562294632
:1047F0004FF400730222204602F070FBC4F85851B7
:104800000127082303228221204602F067FB276448
:104810004FF4077005F024FB0546C4F8900268B316
:10482000D4F8943200261B68984794F81080C5F895
:1048300014623946C5F818622046D5F80422B8F14A
:10484000000F14D0402302F0B5FB3046BDE8F081E4
:1048500040230222812102F041FBE56229464023E8
:104860000222204602F03AFBC4F85851C8E74FF440
:10487000007302F09FFB4046BDE8F0813846BDE87A
:10488000F08100BF19B1C0F89412002070470220D7
:10489000704700BFD0F890320020C3F80812C3F868
:1048A00010227047D0F890320020C3F804127047ED
:1048B000F8B5D0F8903293B1D3F814420CB101207E
:1048C000F8BDD3F810620127D3F808228121C3F87C
:1048D0001472B3B2066302F05FFB2046F8BD0220FB
:1048E000F8BD00BFD0F890228AB1D2F8042210B5EA
:1048F000047C2CB14023012102F05CFB002010BDA0
:104900004FF40073012102F055FB204610BD022038
:10491000704700BF88B108B5D0F88C3213B10023BE
:10492000C0F88C3209B1C0F888120121027080F8F9
:10493000741202F093FA002008BD0220704700BFF5
:1049400019B1C0F88C12002070470220704700BFD8
:1049500008B502F0B5FA002008BD00BF08B5D0F8D0
:104960008C3213B11B68984708B1022008BD08BDFE
:1049700008B5D0F88C325B689847002008BD00BFAE
:1049800038B500F520750446284600F08FFB94F8F2
:1049900080120120B4F8862201F01F03C4F86C02D3
:1049A0008342C4F8702215D00ED3022B06D001F03A
:1049B0008001204602F0B2FA002038BD2946204688
:1049C00000F0CAFA002038BD2946204600F002F95E
:1049D000002038BD2946204600F088FA002038BD66
:1049E00070B5054641B9D0F86C32032B0ED0052BBB
:1049F0000C462AD0002070BDD0F88C329B691BB1C8
:104A000090F87422032A26D0022070BD1646D0F8F2
:104A10004C31D0F8502193420AD99B1A31469A4220
:104A2000C0F84C318CBF9AB292B200F0A9FBE1E71A
:104A3000D0F88C321B691BB190F87422032A0DD078
:104A4000284600F0A5FB002070BDC5F86C1202F0EE
:104A500065FA204670BD9847002070BD9847EFE783
:104A600070B5044661B9D0F86C52022D12D035F001
:104A700004033FD094F878320020012B37D070BD6A
:104A8000D0F88C325B691BB190F87422032A3CD0B9
:104A9000022070BD056A0E46436A9D422ED8C56944
:104AA000B5FBF3F203FB12528AB9AB420FD8D0F830
:104AB00070329D420BD20A4600F04AFBC4F8706285
:104AC000334632463146204602F074FAD2E7D4F833
:104AD0008C32DB681BB194F87422032A18D0802131
:104AE000204602F01BFA204600F05EFBC2E784F885
:104AF000780270BD802102F011FABBE7EB1A114673
:104B000003629AB200F024FBDAE79847002070BDF8
:104B100020469847E3E700BF70B5002240260446D0
:104B200001251146334602F0D9F933468021C4F8F5
:104B30004451C4F850612046002202F0CFF9002110
:104B4000D4F89032A561666284F87452C4F86C128D
:104B50006160C4F87C1223B1D4F88C3220465B68C3
:104B60009847002070BD00BF01740020704700BF4F
:104B700003460421002093F8742283F8741283F80A
:104B8000752270470346002093F8752283F874223B
:104B9000704700BF90F87422032A01D000207047AC
:104BA00008B5D0F88C32DB6903B19847002008BD06
:104BB000002070470020704700207047D0F88C22FA
:104BC000012108B580F874120179536898470020D4
:104BD00008BD00BF30B50B7883B00C46054603F026
:104BE0006003202B16D0402B14D04BB1802102F053
:104BF00095F92846002102F091F9002003B030BD5C
:104C00004B78092B19D8DFE803F043591867186D62
:104C10008918AF23D5F88C32214628469B689847DF
:104C2000002003B030BD79B301210323416080F837
:104C30007432FFF793FE022826D18021284602F025
:104C40006DF92846002102F069F9002003B030BD5B
:104C50008978A54C01292170EFD890F87432022B85
:104C6000E1D0032B40F01C81002900F03281416823
:104C7000012909D0C9B2FFF77BFE21782846696077
:104C8000FFF76CFE0228D8D0284600F081FAB4E77E
:104C900090F874320322013B022BCED8CB88022B32
:104CA000CBD10121D0F87C32C16003B1C2600222B5
:104CB00005F10C01284600F03DFA9EE790F87432A9
:104CC000013B022BB9D84B88012B96D10023C0F8A9
:104CD0007C3200F05DFA90E74B88012B8DD1C0F853
:104CE0007C32D1E78B88002BA7D1CB88002BA4D1B5
:104CF0004C887F2CA1D890F87432E1B2032B9CD061
:104D000080F8761202F03AF9284600F041FA002CB9
:104D100000F0DB80022385F874326EE74A88130ABC
:104D2000013B0E2B89D801A151F823F0094E000850
:104D3000F14D0008DF4D00083B4C00083B4C0008DB
:104D4000C94D0008194E00083B4C00083B4C0008B8
:104D50003B4C00083B4C00083B4C00083B4C000817
:104D60003B4C00088F4D0008CA88012A7FF465AFCC
:104D700090F87432002B3FF460AF022B40F2898030
:104D8000032B7FF45AAF011D00F0D4F935E7D0F8BA
:104D900088320DF10601007CDB699847BDF80630CA
:104DA0006BB1E288002A3FF46FAF93420146284678
:104DB00028BF13461A46ADF8063000F0BBF9E38869
:104DC000002B7FF41AAF5FE7037C002B7FF435AF35
:104DD000D0F88C320DF106005B6B9847DEE7D2B25B
:104DE000052A3FF62AAFDFE802F04C443C342C247D
:104DF000037C002B60D1D0F88C320DF106009B6A49
:104E0000984702234370C9E7D0F888320DF10601B4
:104E1000007C1B689847C1E7037C002B7FF40DAF33
:104E2000D0F88C320DF106001B6B984707234370B6
:104E3000B4E7D0F888320DF10601007C9B699847F1
:104E4000ACE7D0F888320DF10601007C5B69984729
:104E5000A4E7D0F888320DF10601007C1B69984761
:104E60009CE7D0F888320DF10601007CDB6898479A
:104E700094E7D0F888320DF10601007C9B689847D2
:104E80008CE7D0F888320DF10601007C5B6898470A
:104E900084E70023014641F8083F00F04BF9ACE6F7
:104EA000802102F03BF80021284602F037F82178F3
:104EB0002846FFF75DFDA0E6D0F88C320DF1060024
:104EC000DB6A98470223437068E7012385F8743250
:104ED00093E60223416080F87432FFF749FD2846CB
:104EE00000F056F989E600BFAC03002038B50B7816
:104EF0000D46044603F06003202B0BD0402B09D055
:104F000043B1802102F00AF82046002102F006F8A1
:104F1000002038BD94F87432013B022B02D82B7963
:104F2000012B09D98021204601F0F8FF20460021FD
:104F300001F0F4FF002038BDD4F88C322946204619
:104F40009B689847EB88002BF4D10028F2D12046CB
:104F500000F01EF9EEE700BF70B50C78054604F0CE
:104F60006004202C25D0402C23D044B1802101F0B6
:104F7000D5FF2846002101F0D1FF002070BD4B78FD
:104F80008A88012BD6B23CD01AD3032B3FD190F89C
:104F90007432022B44D0032B39D14B88002B5AD1C9
:104FA000720658D0CB88002B55D1314601F0B6FFA0
:104FB00051E0D5F88C3228469B689847002070BD98
:104FC00090F87432022B4AD0032B20D106F00F0345
:104FD000120603EB830300EB830352D4D3F844316E
:104FE00043B306F07F03142404FB030404F5A07408
:104FF000002B51D1236021462846022200F09AF866
:10500000BBE790F87432022B0AD0032B1BD080210F
:1050100001F084FF2146284601F080FF002070BD8A
:10502000730607D0314601F079FF2846802101F050
:1050300075FFA2E78021284601F070FF2846002175
:1050400001F06CFF99E74B88002B96D1740602D0D3
:10505000314601F071FF284600F09AF88DE770069E
:10506000E8D111064FF0000428464FF002024CBF71
:1050700005F1140305F5A07319461C6000F05AF8F9
:105080007BE79B69002BD5D006F07F035C1C04EB0B
:10509000840400EB8404ABE73146284601F05AFF54
:1050A00008B10123A6E72060A5E700BF0B780370D5
:1050B0004B784370CA788B7803EB022343804A799C
:1050C0000B7903EB02238380CA798B7903EB0223EC
:1050D000C380704710B50446802101F01FFF0021F6
:1050E0002046BDE8104001F019BF00BFF8B10378B9
:1050F00030B4EBB104460023013314F8015FDBB296
:10510000002DF9D15B000233032413800B704C7027
:1051100004785CB1022300255A1CCC540233D2B26D
:10512000DBB28D5410F8014F002CF5D130BC704724
:105130000223E9E770B5154602260A460021C5613B
:105140002B460562C0F86C6201F026FF002070BD9E
:1051500008B513460A46002101F01EFF002008BDD5
:1051600070B5154603260A460021C0F848512B4663
:10517000C0F84C51C0F86C6201F01CFF002070BDFB
:1051800008B513460A46002101F014FF002008BDAF
:1051900008B504220023C0F86C2219461A4601F013
:1051A000FBFE002008BD00BF08B505220023C0F8A3
:1051B0006C2219461A4601F0FDFE002008BD00BF12
:1051C000F8B56FF06502204C042603236FF00F053D
:1051D0006FF046000A212670637020260023A57216
:1051E00022733F256FF066022827A07420462175A0
:1051F0001C2123716371A371E37123726372637560
:10520000A375E3756376A376E3762776A670E670DA
:10521000E572E5746273A273E2732274627402F041
:105220006DFA6369207700EE103A9FED057BB8EECA
:10523000400BBDE8F84080EE070B00F071BF00BFE7
:105240000000000000408F40981400200000000083
:105250002DE9F04F0123BC4D0D28ADF21C5D2B70E4
:105260000ED00A28B94C0FD022680026B84FD318A8
:10527000B849B8547E2B0E7023600DDC00232B70D0
:105280000DF21C5DBDE8F08F23680022B049B14EDD
:105290007E2BCA54327005DD002323600DF21C5DA5
:1052A000BDE8F08F06A8AC4F04F0DEFE06A8AB49BF
:1052B00005F0EAFC024668B1DFF8A0823378414687
:1052C000002047F823200133337005F0DDFC02464F
:1052D0000028F3D196F80090B9F1000F40F0A280B9
:1052E0009F4E3E609F493046FAF7AAFF804600284D
:1052F00000F0BA809C493046FAF7A2FF002800F07F
:10530000BB809A493046FAF79BFF002800F0BC802A
:1053100097493046FAF794FF8046002800F00C8148
:1053200094493046FAF78CFF002800F095819249A5
:105330003046FAF785FF8046002800F0E7818F4964
:105340003046FAF77DFF8046002800F0EE818C4958
:105350003046FAF775FF002800F0FF818949304692
:10536000FAF76EFF0146002800F079828649304640
:10537000FAF766FF002800F0F18284493046FAF718
:105380005FFF0146002800F0098381493046FAF7A3
:1053900057FF0146002800F0E8827E493046FAF7C0
:1053A0004FFF8046002800F068837B493046FAF7BB
:1053B00047FF0146002800F0558378493046FAF748
:1053C0003FFF0146002800F0368375493046FAF762
:1053D00037FF0146002800F0718372493046FAF722
:1053E0002FFF002800F0A6836F493046FAF728FF08
:1053F000002800F099833378FBB18022002146A871
:1054000004F049FD694946A803F04EFF396846A8F3
:1054100003F04AFF46A8664903F046FF46A804F099
:1054200079F90AE03E6863493046FAF709FF60B946
:1054300004F074FB604804F06DF9002380224448B6
:105440001946236004F027FD18E75C493046FAF757
:10545000F7FE8046002840F01182B9F1040F23D0F6
:10546000574804F057F9E8E7B9F1020F00F0058159
:10547000544804F04FF9E0E7B9F1070F00F0AC80B1
:10548000514804F047F9D8E78022014646A804F0C5
:1054900002FD4E4946A803F007FF01F015FA05206A
:1054A00004F0DAF80146B2E7786803F021FF00283B
:1054B000D6D0B86803F01CFF0028D1D0F86803F0FC
:1054C00017FF0028CCD0786803F020FF8346B86827
:1054D00003F01CFF8246F86803F018FF51460246AD
:1054E00006465FFA8BF004F037FC8022414646A85E
:1054F00004F0D1FC364946A803F0D6FE02215846F6
:1055000004F00CF8014646A803F0CEFE134946A865
:1055100003F0CAFE0221504604F000F8014646A8F6
:1055200003F0C2FE0D4946A803F0BEFE49463046D0
:1055300003F0F4FF01466AE7B9F1030F00F051816F
:10554000244804F0E7F878E7AD0300203004002099
:10555000B0030020340400203804002098D800084C
:10556000B8D600087CD5000894D50008BCD5000842
:10557000D4D50008ECD500080CD6000824D60008C5
:1055800040D6000858D6000874D6000894D6000803
:10559000BCD60008F0D7000808D8000838D80008A2
:1055A00074D800089CD80008ACD80008BCD8000803
:1055B0004CD900081CD5000834D500084CD500088B
:1055C000CCD80008F4D8000808D90008C8D50008CD
:1055D00058D5000824D900080DF19808AE4F0DF1F8
:1055E000B0094646786803F075FE00283FF448AFDE
:1055F00057F8040F04F005FC46F8040B4E45F1D1B2
:105600002B9F0DF58C7A269E01972A9F3046299B69
:10561000289A279900972BAF04F0EAFA5046802287
:10562000002104F038FC50469C4903F03DFE01E0A7
:1056300058F8046F0221304603F088FE01465046B8
:1056400003F032FEB845F3D19549504603F02CFEE5
:10565000504604F05FF8F0E6039001F077F8039805
:105660008022014646A804F016FC46A88D4903F0A6
:105670001BFE46A804F04EF8DFE6786803F038FE1B
:1056800000283FF4F5AE78680DF58C7A03F03EFE05
:1056900006468022414626A804F0FDFB26A9F0B26A
:1056A00004F07AFA4FF4806207464146504604F00F
:1056B000F2FB7D49504603F0F7FD4946304603F0C2
:1056C0002DFF0146504603F0EFFD5046774903F0A9
:1056D000EBFD002FB8D007F1FF390DF19606DFF88A
:1056E000CCB101E0B845AFD0042136F8020F03F089
:1056F00015FF0146504603F0D7FDC14508F10108EA
:10570000F0DD5946504603F0CFFDEBE7FFF758FDBB
:105710004146802246A804F0BEFB46A8644903F037
:10572000C3FD46A803F0F6FF87E6624E1C21304613
:1057300001F0E4FF314630771D225F4801F0B2FFEF
:105740004146802246A804F0A6FB46A85B4903F028
:10575000ABFD46A803F0DEFF6FE6564E8022014601
:1057600046A804F098FB564946A803F09DFD082181
:10577000306803F0D3FE014646A803F095FD4B497F
:1057800046A803F091FD7268B368052043EC102B26
:1057900003F062FF014646A803F086FD434946A890
:1057A00003F082FDF2683369052043EC102B03F00F
:1057B00053FF014646A803F077FD3C4946A803F095
:1057C00073FD706903F034FF014646A803F06CFDD9
:1057D000364946A803F068FDB06903F029FF014689
:1057E00015E6786803F062FF00283FF4A9AEB868B8
:1057F00003F05CFF00283FF4A3AE2E4E786803F060
:1058000063FFB86853EC102BB360726003F05CFF69
:105810008022414646A85BEC10ABC6F80CA0C6F847
:1058200010B004F038FB274946A803F03DFD72682C
:10583000B368052043EC102B03F00EFF014646A889
:1058400003F032FD194946A803F02EFDF2683369D2
:10585000052043EC102B03F0FFFE0146D7E5802224
:1058600046A804F018FB184946A803F01DFD114B8B
:105870000821186803F052FE0146C8E51349304676
:10588000FAF7DEFC00287FF42DADB9F1030F21D02B
:105890000F4803F03FFFD0E538040020A8D50008EA
:1058A0004CD90008FCD5000888D5000898D8000815
:1058B00018D600089814002000000C0830D6000804
:1058C0004CD60008E0D5000864D6000864D500086E
:1058D000E0D80008786803F00BFD0028D8D0B8683D
:1058E00003F006FD0028D3D0786803F00FFD804652
:1058F000B86803F00BFD0646B8F1000F01D17C2813
:10590000C6D031465FFA88F004F024F980220746B9
:10591000002146A804F0BFFA9B4946A803F0C4FC46
:105920000221404603F0FAFD014646A803F0BCFC04
:10593000964946A803F0B8FC0221304603F0EEFD7C
:10594000014646A803F0B0FC904946A803F0ACFC21
:105950000421384603F0E2FD014658E5B9F1020F93
:1059600034D08B4803F0D6FE67E50DF58C7A4FF402
:105970008072504604F08FFA8649504603F094FC3A
:1059800000F002FC0138052800F2DF80DFE810F0AB
:10599000EB00E600E100DD00D800F000802246A820
:1059A00004F079FA7C4946A803F07EFC44F26F00CB
:1059B00003F03EFE014646A803F076FC46A8774970
:1059C00003F072FC46A803F0A5FE36E5786803F004
:1059D00081FC0028C5D0786803F0A8FC064600F0DA
:1059E000D9FB9FED677B20EE070BFCEEC06BCDED86
:1059F000036ABDF80C20B6FBF2F302FB1363F31A43
:105A00009BB29A42ADD806EE903A654EB8EE660B60
:105A1000736180EE070B00F083FB8022002146A813
:105A200004F039FA5F4946A803F03EFC706903F0C0
:105A3000FFFD0146EBE40DF58C7A8022504604F020
:105A40002AFA5949504603F02FFC00F0EBFB0028DE
:105A500045D100F081FB00283CD15449504603F069
:105A600023FCF1E5802246A804F015FA504946A827
:105A700003F01AFC46A84F49CAE426A904A800F07E
:105A80002DFF8022414646A804F005FA4A4946A85F
:105A900003F00AFC01209DED040B03F0DDFD01463F
:105AA00046A803F001FC394946A803F0FDFB01209C
:105AB0009DED260B03F0D0FD0146A8E4802246A808
:105AC00004F0E9F9786803F005FCA8B93B4803F055
:105AD00021FEB2E43A49504603F0E6FBB4E5394909
